:1000000012C02CC02BC02AC029C028C027C026C0BF
:1000100025C08EC023C022C021C020C01FC01EC06A
:100020001DC01CC01BC011241FBECFE5D4E0DEBF25
:10003000CDBF10E0A0E6B0E0E6E4F0E102C005903C
:100040000D92A63CB107D9F711E0A6ECB0E001C0D3
:100050001D92AA30B107E1F7AAD0F3C7D1CF80E44F
:1000600087BB8DB90895FC018EB1882314F080E020
:1000700008958FB1808381E008958FB90895982FF6
:10008000E5E6F0E020E030E08081891759F4F901DD
:10009000EE0FFF1FEE0FFF1FE20FF31FEA59FF4F96
:1000A000808108952F5F3F4F35962031310561F7EC
:1000B00080E00895982FE5E6F0E020E030E08081D0
:1000C000891781F4F901EE0FFF1FEE0FFF1FE20FFA
:1000D000F31FEB59FF4F61830380F481E02D892FDB
:1000E000099508952F5F3F4F35962031310539F737
:1000F0000895EF92FF920F931F93CF93DF9320E029
:1001000030E04AE754E416D752D67B01C5EBD0E085
:1001100005EC10E0E991F991C7010995C017D107E5
:10012000C9F7DF91CF911F910F91FF90EF90089544
:100130001F920F920FB60F9211242F933F934F935C
:100140005F936F937F938F939F93AF93BF93EF933F
:10015000FF93809160008823C9F06091C600709180
:10016000C7008091C8009091C9002091ED003091A6
:10017000EE004091EF005091F0004DD56093C60025
:100180007093C7008093C8009093C900FF91EF91CE
:10019000BF91AF919F918F917F916F915F914F919F
:1001A0003F912F910F900FBE0F901F9018956F9257
:1001B0007F928F929F92AF92BF92CF92DF92EF92F7
:1001C000FF920F931F93DF93CF930F92CDB7DEB7BC
:1001D00046DF99D0E9E5F0E08081816080838091FD
:1001E000C500A9D112BE80E090E0A0E0B0E080930D
:1001F000C6009093C700A093C800B093C90078943C
:1002000099243E010894611C711C8824C3012BDFD2
:100210008823C1F09920A9F080916000882329F4F7
:1002200081E0981649F0982C0DC099202CF4892D66
:10023000698140DF982C06C0892D21DF1EDF982CB4
:1002400001C099806091C6007091C7008091C8007C
:100250009091C9002091CE003091CF004091D00004
:100260005091D100D7D47B018C016093CA00709368
:10027000CB008093CC009093CD006091D200709120
:10028000D30080E090E0C4D55B016C0120E030E059
:100290004AE754E424D59B01AC01C801B70146D616
:1002A00018163CF5C601B50120E030E04AE754ECF1
:1002B00016D59B01AC01C801B701ADD49B01AC01BF
:1002C0006093CA007093CB008093CC009093CD00D4
:1002D0006091C6007091C7008091C8009091C900DC
:1002E00099D46093CE007093CF008093D000909308
:1002F000D1006091CA007091CB008091CC009091A8
:10030000CD00F7DE83CF21E330E0F9018081836007
:100310008083A2E3B0E08C918C7F8C9380818C6190
:1003200080838C91837E8C93E7E3F0E08081816011
:100330008083E4E3F0E080818F638083E8E3F0E092
:1003400080818E7F8083E5E3F0E08081807C808304
:10035000F9018081806E80838C918F718C9380E114
:1003600090E09093D3008093D20008951F93CF9391
:10037000DF93E5E3F0E0908121E030E002C0220F5E
:10038000331F6A95E2F7122F922B908340E050E0E2
:10039000C1E0D0E0682F70E0E8E3F0E0A0E2BEE466
:1003A0009E01042E02C0220F331F0A94E2F7C901F6
:1003B000862397232817390721F480818160808361
:1003C00003C080818E7F8083CD010197F1F74F5F5D
:1003D0005F4F4830510521F7E5E3F0E09081812F30
:1003E000809589238083DF91CF911F910895EF92AB
:1003F000FF920F931F93F62EE42E8093E1006093FB
:10040000E2004093E30063E0B1DF00E21EE4C801D4
:100410000197F1F78F2D64E0A9DFC8010197F1F78B
:100420008E2D65E0A3DFC8010197F1F71F910F91B1
:10043000FF90EF900895EF92FF920F931F93F62E87
:10044000E42E8093DE006093DF004093E00060E0E4
:100450008DDF00E21EE4C8010197F1F78F2D61E006
:1004600085DFC8010197F1F78E2D62E07FDFC801BB
:100470000197F1F71F910F91FF90EF900895EF9280
:10048000FF920F931F9390E0A0E0B0E0BC01CD017C
:10049000BFD420E030E04FE753E421D47B018C014E
:1004A0006091D2007091D30080E090E0B1D49B01C4
:1004B000AC01C801B7013ED57FD4DC01CB011F914F
:1004C0000F91FF90EF9008950F931F93162F042F15
:1004D0008093E4006093E5004093E600D0DF8093D2
:1004E000E700812FCCDF8093E800802FC8DF809366
:1004F000E9001F910F9108958093DA00C0DF809387
:10050000DD0008958093D900BADF8093DC00089560
:100510008093D800B4DF8093DB0008958093D500EA
:10052000AEDF8093D70008958093D400A8DF809336
:10053000D60008950895982F80916400891709F4D2
:1005400060C0909364009923A9F4E3E5F0E0808112
:100550008D7F80838081856080838DEB97E3A6E823
:10056000BCE38093ED009093EE00A093EF00B09376
:10057000F00008959130A9F4E3E5F0E080818C7FEC
:1005800080838081846080838DEB97E3A6E8BBE362
:100590008093ED009093EE00A093EF00B093F000F5
:1005A00008959230A9F4E3E5F0E080818B7F8083A9
:1005B0008081836080838DEB97E3A6E8BAE3809324
:1005C000ED009093EE00A093EF00B093F00008953B
:1005D0009330A9F4E3E5F0E080818A7F8083808115
:1005E000826080838DEB97E3A6E0B9E38093ED0012
:1005F0009093EE00A093EF00B093F000089581E097
:100600009ADF0895462F8E3039F4862F6091E500E9
:100610004091E60059DF08958F3031F48091E40075
:100620004091E60051DF0895803129F48091E40083
:100630006091E50049DF08958B3019F4862F68DF5B
:1006400008958C3019F4862F5DDF08958D3011F4F4
:10065000862F52DF0895893019F4862F65DF0895BB
:100660008A3011F4862F5ADF0895462F863039F4E8
:10067000862F6091E2004091E300B9DE0895873053
:1006800031F48091E1004091E300B1DE08958830BB
:1006900029F48091E1006091E200A9DE0895462FDF
:1006A000833039F4862F6091DF004091E000C3DE93
:1006B0000895843031F48091DE004091E000BBDE8B
:1006C0000895853029F48091DE006091DF00B3DE6B
:1006D0000895CF92DF92EF92FF920F931F93C62E51
:1006E000809101018823A9F48091D400EFEFF0E01C
:1006F00081938091D5008083ACEFB0E08091D800E9
:10070000FD0181938091D90080838091DA00129657
:100710008C938091FB008823D1F4A8EFB0E0809106
:10072000DE00FD0181938091DF0080838091E000F5
:1007300012968C93A5EFB0E08091E100FD018193CA
:100740008091E20080838091E30012968C938091E7
:10075000F400882369F4A1EFB0E08091E400FD018A
:1007600081938091E50080838091E60012968C93BE
:10077000DC2CC0FE43C180916000882329F481E015
:10078000809360001092FB00D3FE16C08091610040
:10079000882319F581E080936100E8EFF0E0808123
:1007A0006181428148DEE5EFF0E080816181428134
:1007B0001EDE1092FB0011C080916100882369F059
:1007C0001092610080E060E040E035DE80E060E0B3
:1007D00040E00DDE81E08093FB00D4FE23C08091D9
:1007E0006200882391F581E0809362000FEF10E0B2
:1007F000F80181918F0198DEF80180818FDE0F2E44
:10080000FCEFEF2EF0E0FF2EF02DF70181918F012C
:100810007FDEF801808176DEF70182816DDE109245
:10082000010113C080916200882379F01092620068
:1008300080E07ADE80E072DE80E06ADE80E062DE08
:1008400080E05ADE81E080930101D5FE10C08091E6
:1008500063008823C9F481E080936300E1EFF0E056
:1008600080816181428130DE1092F4000DC0809160
:100870006300882349F01092630080E060E040E06C
:1008800023DE81E08093F400D1FE23C08091EA0052
:100890008823F9F411E01093EA0046DE80E03EDEA2
:1008A00080E036DE80E02EDE80E026DE80E060E064
:1008B00040E0C1DD80E060E040E099DD80E060E0A4
:1008C00040E002DE109301011093FB001093F4004E
:1008D00002C01092EA00D2FE28C08091EB0088236B
:1008E00021F58091EA00882301F511E01093EB00D7
:1008F0008FEF1ADE8FEF12DE8FEF0ADE8FEF02DE50
:100900008FEFFADD8FEF6FEF4FEF95DD8FEF6FEF2A
:100910004FEF6DDD8FEF6FEF4FEFD6DD10930101DD
:100920001093FB001093F40002C01092EB00809132
:10093000EA00882309F041C08091EB008823E9F5A3
:100940000FEF10E0F80181918F01EEDDF801808159
:10095000E5DD0F2EFCEFEF2EF0E0FF2EF02DF7017E
:1009600081918F01D5DDF8018081CCDDF701828195
:10097000C3DDE8EFF0E08081618142815CDDE5EF7D
:10098000F0E080816181428132DDE1EFF0E0808141
:100990006181428199DD80916200882311F010927B
:1009A000010180916100882311F01092FB00809179
:1009B0006300882311F01092F400D6FE0AC08091E3
:1009C000EC00882371F481E08093EC0080E0B3DDDB
:1009D00008C08091EC00882321F01092EC0081E0A7
:1009E000AADDCC20C4F4E6E6F0E026EB30E081811D
:1009F00080833596E217F307D1F70DC0109260009F
:100A000080E060E040E017DD80E060E040E0EFDCA7
:100A100081E08093FB001F910F91FF90EF90DF909A
:100A2000CF9008952091D60030E0281739076CF058
:100A3000809102018823A1F4E2E3F0E080818160EB
:100A4000808381E0809302010895809102018823D0
:100A500039F0E2E3F0E080818E7F80831092020122
:100A600008952091D70030E0281739076CF0809165
:100A700003018823A1F4E2E3F0E0808182608083B7
:100A800081E080930301089580910301882339F068
:100A9000E2E3F0E080818D7F80831092030108956E
:100AA0002091DB0030E0281739076CF080910401B9
:100AB0008823A1F4E2E3F0E080818460808381E018
:100AC00080930401089580910401882339F0E2E3C2
:100AD000F0E080818B7F8083109204010895209143
:100AE000DC0030E0281739076CF08091050188237D
:100AF000A1F4E2E3F0E080818860808381E080936C
:100B00000501089580910501882339F0E2E3F0E0C2
:100B10008081877F80831092050108952091DD00F8
:100B200030E0281739076CF0809106018823A1F482
:100B3000E2E3F0E080818061808381E080930601C0
:100B4000089580910601882339F0E2E3F0E0808186
:100B50008F7E80831092060108952091E70030E097
:100B6000281739076CF0809107018823A1F4E2E38C
:100B7000F0E080818062808381E0809307010895A6
:100B800080910701882339F0E2E3F0E080818F7DD6
:100B900080831092070108952091E80030E0281723
:100BA00039076CF0809108018823A1F4E2E3F0E0BA
:100BB00080818064808381E0809308010895809122
:100BC0000801882339F0E2E3F0E080818F7B8083A5
:100BD0001092080108952091E90030E028173907A4
:100BE0006CF0809109018823A1F4E2E3F0E08081B8
:100BF0008068808381E080930801089580910901D5
:100C0000882339F0E2E3F0E080818F7780831092CF
:100C1000090108955058BB27AA270ED04DC13ED1D7
:100C200030F043D120F031F49F3F11F41EF433C172
:100C30000EF4E095E7FB29C1E92F4FD180F3BA17F5
:100C4000620773078407950718F071F49EF567C172
:100C50000EF4E0950B2EBA2FA02D0B01B9019001D7
:100C60000C01CA01A0011124FF27591B99F0593F1B
:100C700050F4503E68F11A16F040A22F232F342F63
:100C80004427585FF3CF469537952795A795F040B1
:100C90005395C9F77EF41F16BA0B620B730B840BC6
:100CA000BAF09150A1F0FF0FBB1F661F771F881F7E
:100CB000C2F70EC0BA0F621F731F841F48F48795D6
:100CC00077956795B795F7959E3F08F0B3CF9395C5
:100CD000880F08F09927EE0F9795879508950CD007
:100CE000EBC0E3D040F0DAD030F021F45F3F19F0F0
:100CF000CCC0511115C1CFC0F0D098F39923C9F3DE
:100D00005523B1F3951B550BBB27AA276217730711
:100D1000840738F09F5F5F4F220F331F441FAA1FC5
:100D2000A9F333D00E2E3AF0E0E830D09150504085
:100D3000E695001CCAF729D0FE2F27D0660F771F33
:100D4000881FBB1F261737074807AB07B0E809F015
:100D5000BB0B802DBF01FF2793585F4F2AF09E3FAA
:100D6000510568F092C0DCC05F3FECF3983EDCF3C5
:100D7000869577956795B795F7959F5FC9F7880F23
:100D8000911D9695879597F90895E1E0660F771F75
:100D9000881FBB1F621773078407BA0720F0621B06
:100DA000730B840BBA0BEE1F88F7E095089504D0FF
:100DB0006894B111B5C0089598D088F09F5790F00D
:100DC000B92F9927B751A0F0D1F0660F771F881F70
:100DD000991F1AF0BA95C9F712C0B13081F09FD0AF
:100DE000B1E008959CC0672F782F8827B85F39F04D
:100DF000B93FCCF3869577956795B395D9F73EF4CF
:100E000090958095709561957F4F8F4F9F4F089576
:100E1000E89409C097FB3EF4909580957095619594
:100E20007F4F8F4F9F4F9923A9F0F92F96E9BB274A
:100E30009395F695879577956795B795F111F8CFC6
:100E4000FAF4BB0F11F460FF1BC06F5F7F4F8F4F31
:100E50009F4F16C0882311F096E911C0772321F027
:100E60009EE8872F762F05C0662371F096E8862FBF
:100E700070E060E02AF09A95660F771F881FDAF716
:100E8000880F9695879597F9089597F99F6780E859
:100E900070E060E008959FEF80EC089500240A94CC
:100EA0001616170618060906089500240A94121645
:100EB0001306140605060895092E0394000C11F478
:100EC000882352F0BB0F40F4BF2B11F460FF04C025
:100ED0006F5F7F4F8F4F9F4F089557FD9058440F7E
:100EE000551F59F05F3F71F04795880F97FB991F89
:100EF00061F09F3F79F08795089512161306140646
:100F0000551FF2CF4695F1DF08C0161617061806D2
:100F1000991FF1CF86957105610508940895E894AD
:100F2000BB2766277727CB0197F9089566D008F489
:100F30008FEF08950BD0C0CFB1DF28F0B6DF18F0E7
:100F4000952309F0A2CFA7CF1124EACFC6DFA0F3E3
:100F5000959FD1F3950F50E0551F629FF001729F4E
:100F6000BB27F00DB11D639FAA27F00DB11DAA1F6D
:100F7000649F6627B00DA11D661F829F2227B00DBA
:100F8000A11D621F739FB00DA11D621F839FA00D45
:100F9000611D221F749F3327A00D611D231F849F95
:100FA000600D211D822F762F6A2F11249F575040EC
:100FB0008AF0E1F088234AF0EE0FFF1FBB1F661F87
:100FC000771F881F91505040A9F79E3F510570F040
:100FD0005CCFA6CF5F3FECF3983EDCF38695779528
:100FE0006795B795F795E7959F5FC1F7FE2B880F3B
:100FF000911D9695879597F90895990F0008550FBB
:10100000AA0BE0E8FEEF16161706E807F907C0F08E
:1010100012161306E407F50798F0621B730B840B96
:10102000950B39F40A2661F0232B242B252B21F470
:1010300008950A2609F4A140A6958FEF811D811D10
:061040000895F894FFCFB3
:10104600010101010101B9B969030200009A020315
:1010560000004F030400004F030500004F03060085
:1010660000350307000035030800003503090000BA
:101076002B030A00002B030B00001C030C00001CB2
:10108600030D00001C030E000002030F0000020304
:1010960010000002031205310550056F058E05ADDF
:0610A60005CC05EB05017D
:00000001FF
